:100000000C945D000C942F040C9408040C947A005A
:100010000C947A000C947A000C947A000C94560498
:100020000C947A000C947A000C947A000C947A0068
:100030000C947A000C947A000C947A000C947A0058
:100040000C94BE030C947A000C947A000C947A0001
:100050000C947A000C947A000C947A000C947A0038
:100060000C947A000C947A00000000002400270011
:100070002A0000000008000201000003040700003D
:10008000000000000000010204081020408001026E
:1000900004081020010204081020000000002500C0
:1000A00028002B00040404040404040402020202D5
:1000B0000202030303030303020011241FBECFEF58
:1000C000D8E0DEBFCDBF11E0A0E0B1E0E4EEFDE09E
:1000D00002C005900D92AA30B107D9F721E0AAE03D
:1000E000B1E001C01D92AC32B207E1F70E94B20448
:1000F0000C94F0060C94000090E0FC01EE58FF4FC9
:100100002491FC01EA57FF4F3491FC01EC55FF4F5D
:10011000E491EE23C9F0222339F0233001F1A8F451
:10012000213019F1223029F1F0E0EE0FFF1FE656E1
:10013000FF4FA591B4918FB7F894EC91611126C04F
:1001400030953E233C938FBF08952730A9F0283087
:10015000C9F0243049F7809180008F7D03C08091E1
:1001600080008F7780938000DFCF84B58F7784BD48
:10017000DBCF84B58F7DFBCF8091B0008F778093EC
:10018000B000D2CF8091B0008F7DF9CF3E2BDACF77
:10019000CF93DF9390E0FC01EA57FF4F24918C55F9
:1001A0009F4FFC0184918823D1F090E0880F991F24
:1001B000FC01E859FF4FA591B491FC01E656FF4FB1
:1001C000C591D491623071F49FB7F8943C91822F1D
:1001D000809583238C93E8812E2B28839FBFDF910A
:1001E000CF9108958FB7F894EC912E2B2C938FBF5D
:1001F000F6CF8F929F92AF92BF92CF92DF92EF9203
:10020000FF92CF936C0180910401893069F08F3F98
:1002100009F470C0CF91FF90EF90DF90CF90BF9026
:10022000AF909F908F900895E8EBF0E0C491C7FDE8
:10023000F1CF61E089E00E94C800CC2319F0C23000
:1002400009F022C1F12CE12C60E072E18AE790E034
:10025000A70196010E94650649015A01DA01C90108
:100260000197A109B1098F3F9105A105B10509F0D9
:100270000CF4EEC060E472E48FE090E0A701960118
:100280000E9465062150310941095109C23009F027
:10029000A0C082E02F3F31054105510509F00CF463
:1002A00088C160E970ED83E090E0A70196010E94AB
:1002B0006506215031094109510983E02F3F31057D
:1002C0004105510509F00CF474C168E478EE81E051
:1002D00090E0A70196010E9465062150310941096D
:1002E00051092F3F31054105510511F00CF08FC028
:1002F00084E05FC189E080930401E8EBF0E0C49101
:10030000CF3F09F487CFC13021F150F0C23009F45A
:100310003EC0C7FD7FCF61E089E00E94C8008FCF5B
:1003200014BC15BC84B5826084BD85B5816085BD73
:10033000EDEAF0E0E491F0E0EE0FFF1FE656FF4F2C
:1003400085919491EFE8F0E0E491E0931F01C0E023
:1003500070CF10928000109281008091810088609F
:100360008093810080918100816080938100EDEA1B
:10037000F0E0E491F0E0EE0FFF1FE656FF4F8591AD
:100380009491EFE8F0E0E491E0931E0152CF1092D7
:10039000B0001092B1008091B00082608093B000F4
:1003A0008091B10081608093B100EDEAF0E0E491CA
:1003B000F0E0EE0FFF1FE656FF4F8591949190936A
:1003C0001D0180931C01EFE8F0E0E491E0931B0134
:1003D00030CF2F3F31054105510509F00CF452C0D3
:1003E00068E478EE81E090E0A70196010E9465063E
:1003F0002150310941095109CC2309F4AFC02F3FE5
:1004000031054105510511F00CF0B0C071CF64E227
:1004100074EF80E090E0A70196010E9465062150EC
:1004200031094109510985E02F3F31054105510549
:1004300009F008F4BEC062E17AE780E090E0A7012D
:1004400096010E94650621503109410951099CC05D
:100450009C0181E0C111ADC095B5987F892B85BD08
:1004600027BD8FEF9FEFDC01809328019093290136
:10047000A0932A01B0932B0180916E00826080933B
:100480006E00C8CE82E0E6CFF12CE12C60E072E194
:100490008AE790E0A70196010E9465062150310984
:1004A0004109510991E02115310581E048075105C5
:1004B0006CF068E478EE81E090E0A70196010E947C
:1004C0006506215031094109510993E0C13009F015
:1004D00076C080918100887F892B80938100309342
:1004E0008900209388008FEF9FEFDC018093240127
:1004F00090932501A0932601B093270180916F006E
:10050000826080936F0086CE2093B3008FEF9FEFC1
:10051000DC018093200190932101A0932201B093EC
:1005200023018091700082608093700073CE84E01C
:100530002F3F31054105510509F008F48DCF9AE0B0
:10054000B594A794979487949A95D1F7A5019401AF
:10055000215031094109510985E07ECF83E02F3FC9
:1005600031054105510509F00CF476CF62E17AE7D7
:1005700080E090E0A70196010E94650621503109B4
:1005800041095109CC2399F286E02F3F31054105FD
:10059000510579F070F08AE0B594A7949794879408
:1005A0008A95D1F7A50194012150310941095109DA
:1005B00087E09091B100987F892B8093B100C13082
:1005C00009F48DCFC23009F49FCFC11123CE48CF9B
:1005D0003FB7F8948091170190911801A0911901EB
:1005E000B0911A0126B5A89B05C02F3F19F00196BE
:1005F000A11DB11D3FBFBA2FA92F982F8827BC017D
:10060000CD01620F711D811D911D42E0660F771FA4
:10061000881F991F4A95D1F708958F929F92AF92A4
:10062000BF92CF92DF92EF92FF926B017C010E940A
:10063000E8024B015C01C114D104E104F104B9F0FA
:100640000E94E802681979098A099B09683E73408B
:100650008105910580F321E0C21AD108E108F10873
:1006600088EE880E83E0981EA11CB11CE4CFFF9099
:10067000EF90DF90CF90BF90AF909F908F900895B4
:1006800080911001811103C081E0809311010895D0
:1006900008959091040189130BC0E8EBF0E0E49118
:1006A0009FEF90930401E13049F028F0E23061F0CF
:1006B00060E00C947C0010926E00FACF90916F0075
:1006C0009D7F90936F00F4CF909170009D7F9093E9
:1006D000700091E09093B0009091B100987F946089
:1006E0009093B1001092B300E3CFFC0197FD3796D1
:1006F00023E0F595E7952A95E1F7E65FFE4F68E080
:1007000070E00E94C80621E030E001C0220F8A9507
:10071000EAF78081822B80830895EF92FF920F93F6
:100720001F93CF93DF9360E088E00E947C00C0E1DC
:10073000D1E08AE0E82E81E0F82E0A9118E0602FDF
:10074000661F6627661F8BE00E947C00000F61E039
:100750008CE00E947C0060E08CE00E947C001150E4
:1007600071F7EC16FD0649F761E088E0DF91CF9163
:100770001F910F91FF90EF900C947C001F920F92AD
:100780000FB60F9211242F933F938F939F93AF93A4
:10079000BF938091130190911401A0911501B09124
:1007A00016013091120123E0230F2D3758F50196E1
:1007B000A11DB11D20931201809313019093140188
:1007C000A0931501B0931601809117019091180123
:1007D000A0911901B0911A010196A11DB11D80933C
:1007E000170190931801A0931901B0931A01BF91BA
:1007F000AF919F918F913F912F910F900FBE0F90CE
:100800001F90189526E8230F0296A11DB11DD2CF87
:100810001F920F920FB60F9211242F933F934F9375
:100820005F936F937F938F939F93AF93BF93EF9358
:10083000FF93E0910201F09103010995FF91EF917F
:10084000BF91AF919F918F917F916F915F914F91E8
:100850003F912F910F900FBE0F901F9018951F92F0
:100860000F920FB60F9211242F933F934F935F93E4
:100870006F937F938F939F93AF93BF93EF93FF9368
:10088000E0910001F09101010995FF91EF91BF9175
:10089000AF919F918F917F916F915F914F913F9118
:1008A0002F910F900FBE0F901F9018951F920F92CF
:1008B0000FB60F9211242F933F934F935F936F9333
:1008C0007F938F939F93AF93BF93EF93FF93809109
:1008D000200190912101A0912201B0912301892B47
:1008E0008A2B8B2BD1F190911B01E0911C01F0918F
:1008F0001D018081892780838091200190912101B1
:10090000A0912201B0912301181619061A061B06A0
:100910009CF48091200190912101A0912201B0913D
:1009200023010197A109B10980932001909321012E
:10093000A0932201B0932301FF91EF91BF91AF915A
:100940009F918F917F916F915F914F913F912F91E7
:100950000F900FBE0F901F901895809104010E9478
:100960004903EACF789484B5826084BD84B5816000
:1009700084BD85B5826085BD85B5816085BD80916A
:100980006E00816080936E001092810080918100E2
:1009900082608093810080918100816080938100DA
:1009A000809180008160809380008091B10084609C
:1009B0008093B1008091B00081608093B0008091FD
:1009C0007A00846080937A0080917A0082608093BC
:1009D0007A0080917A00816080937A0080917A0019
:1009E000806880937A001092C10061E088E00E94E4
:1009F000C80061E08CE00E94C80061E08BE00E94CA
:100A0000C80062E082E00E94C80061E089E00E94C4
:100A1000C80080E493E090930101809300018091ED
:100A200069008C7F826080936900E89A80E48093FB
:100A30007C0080917A00806480937A0080917A00B3
:100A400086FDFCCF6091780070917900072E000C34
:100A5000880B990B611571058105910511F00E94B4
:100A60005C0695E2892E912CA12CB12C24E1422E1A
:100A7000512C612C712C30E0C32E30E0D32E332466
:100A8000339480911101882309F471C030921001D0
:100A90000E940D06A50194010E946506EB0180ED00
:100AA00097E00E94F90080E5E82EF12C05E010E0C7
:100AB00010920A0110920B0110920C0110920D017C
:100AC00010920E0110920F01CE010E9475030E9438
:100AD0008D03B801012E000C880B990B0E940D03A9
:100AE000093111050CF44AC09801012E000C440B89
:100AF000550B2550310941095109A4E2BAEF0E9472
:100B00009206A30192010E946506DA01C901805391
:100B1000984FAF4FBF4F0E94F9002196C532D105C3
:100B200011F4D0E0C0E081E0E81AF10809F0C0CF8C
:100B300010920A0110920B0110920C0110920D01FB
:100B400010920E0110920F01CE0101970E947503C1
:100B50000E948D036CE271E080E090E00E940D0342
:100B600089E00E9449031092100110921101C114F2
:100B7000D10409F486CF0E94000083CF0F5F1F4F7E
:100B8000B3CF8F929F92AF92BF92CF92DF92EF92AC
:100B9000FF92CF93DF93EC01688179818A819B81F9
:100BA000611571058105910521F464E279ED8BE50C
:100BB00097E02DE133EF41E050E00E9465064901E6
:100BC0005A019B01AC01A7EAB1E40E9484066B01C3
:100BD0007C01ACEEB4EFA50194010E949206C60E12
:100BE000D71EE81EF91EF7FE06C081E0C81AD1081C
:100BF000E10880E8F80AC882D982EA82FB82C7014C
:100C0000B6019F77DF91CF91FF90EF90DF90CF906B
:100C1000BF90AF909F908F9008958F929F92AF92C8
:100C2000BF92CF92DF92EF92FF9260910501709197
:100C300006018091070190910801611571058105F8
:100C4000910521F464E279ED8BE597E02DE133EF36
:100C500041E050E00E94650649015A019B01AC0148
:100C6000A7EAB1E40E9484066B017C01ACEEB4EF0C
:100C7000A50194010E949206C60ED71EE81EF91E19
:100C8000F7FE06C081E0C81AD108E10880E8F80A3A
:100C9000C0920501D0920601E0920701F09208018E
:100CA000C701B6019F77FF90EF90DF90CF90BF9084
:100CB000AF909F908F900895609305017093060107
:100CC00080930701909308010895052E97FB1EF469
:100CD00000940E947C0657FD07D00E94970607FCEF
:100CE00003D04EF40C947C06509540953095219598
:100CF0003F4F4F4F5F4F0895909580957095619548
:100D00007F4F8F4F9F4F08950E94B906A59F900D6A
:100D1000B49F900DA49F800D911D11240895B7FFDD
:100D20000C9484060E948406821B930B0895A1E212
:100D30001A2EAA1BBB1BFD010DC0AA1FBB1FEE1F55
:100D4000FF1FA217B307E407F50720F0A21BB30BA0
:100D5000E40BF50B661F771F881F991F1A9469F71C
:100D600060957095809590959B01AC01BD01CF0178
:100D70000895A29FB001B39FC001A39F700D811D74
:100D80001124911DB29F700D811D1124911D089594
:100D900097FB072E16F4009407D077FD09D00E9428
:100DA000DC0607FC05D03EF4909581959F4F089591
:100DB000709561957F4F0895AA1BBB1B51E107C039
:100DC000AA1FBB1FA617B70710F0A61BB70B881FDB
:100DD000991F5A95A9F780959095BC01CD0108956A
:040DE000F894FFCFB5
:0A0DE40048034803FF01000000006F
:00000001FF
